{
    "tests/monad/staking/validator_set_changes/test_dummy.py::test_withdrawal[fork_Berlin-blockchain_test]": {
        "network": "Berlin",
        "genesisBlockHeader": {
            "parentHash": "0x0000000000000000000000000000000000000000000000000000000000000000",
            "uncleHash": "0x1dcc4de8dec75d7aab85b567b6ccd41ad312451b948a7413f0a142fd40d49347",
            "coinbase": "0x0000000000000000000000000000000000000000",
            "stateRoot": "0x253f04994efa4b88520e5eb4a44280e48937ecbc6f6be96f8dbb87c949f5aeab",
            "transactionsTrie": "0x56e81f171bcc55a6ff8345e692c0f86e5b48e01b996cadc001622fb5e363b421",
            "receiptTrie": "0x56e81f171bcc55a6ff8345e692c0f86e5b48e01b996cadc001622fb5e363b421",
            "bloom": "0x00000000000000000000000000000000000000000000000000000000000000000000000000000000000000000000000000000000000000000000000000000000000000000000000000000000000000000000000000000000000000000000000000000000000000000000000000000000000000000000000000000000000000000000000000000000000000000000000000000000000000000000000000000000000000000000000000000000000000000000000000000000000000000000000000000000000000000000000000000000000000000000000000000000000000000000000000000000000000000000000000000000000000000000000000000000",
            "difficulty": "0x020000",
            "number": "0x00",
            "gasLimit": "0x016345785d8a0000",
            "gasUsed": "0x00",
            "timestamp": "0x00",
            "extraData": "0x00",
            "mixHash": "0x0000000000000000000000000000000000000000000000000000000000000000",
            "nonce": "0x0000000000000000",
            "hash": "0x115ba43fbd639971cda9983ab8484b0e3a82eb863f39f08b2c837129cbdd683d"
        },
        "pre": {
            "0xa94f5374fce5edbc8e2a8697c15331677e6ebf0b": {
                "nonce": "0x00",
                "balance": "0x0ba1a9ce0ba1a9ce",
                "code": "0x",
                "storage": {}
            },
            "0x0000000000000000000000000000000000003000": {
                "nonce": "0x01",
                "balance": "0x0ba1a9ce0ba1a9ce",
                "code": "0x60206000604060026004825191825284820152611002611770fa1560235760018055005b60016000fd",
                "storage": {}
            },
            "0x0000000000000000000000000000000000001000": {
                "nonce": "0x01",
                "balance": "0x0",
                "code": "0x",
                "storage": {}
            }
        },
        "postState": {
            "0x0000000000000000000000000000000000003000": {
                "nonce": "0x01",
                "balance": "0x0ba1a9ce0ba1a9ce",
                "code": "0x60206000604060026004825191825284820152611002611770fa1560235760018055005b60016000fd",
                "storage": {
                    "0x01": "0x01"
                }
            },
            "0x2adc25665018aa1fe0e6bc666dac8fc2697ff9ba": {
                "nonce": "0x00",
                "balance": "0x1bc16d674ecefc3e",
                "code": "0x",
                "storage": {}
            },
            "0xa94f5374fce5edbc8e2a8697c15331677e6ebf0b": {
                "nonce": "0x01",
                "balance": "0x0ba1a9ce0b9aad90",
                "code": "0x",
                "storage": {}
            }
        },
        "lastblockhash": "0x31c10feee0ed52a7e7760098a34961c40832276b89d82c955b83f51a7f1c729b",
        "genesisRLP": "0xf901fdf901f8a00000000000000000000000000000000000000000000000000000000000000000a01dcc4de8dec75d7aab85b567b6ccd41ad312451b948a7413f0a142fd40d49347940000000000000000000000000000000000000000a0253f04994efa4b88520e5eb4a44280e48937ecbc6f6be96f8dbb87c949f5aeaba056e81f171bcc55a6ff8345e692c0f86e5b48e01b996cadc001622fb5e363b421a056e81f171bcc55a6ff8345e692c0f86e5b48e01b996cadc001622fb5e363b421b9010000000000000000000000000000000000000000000000000000000000000000000000000000000000000000000000000000000000000000000000000000000000000000000000000000000000000000000000000000000000000000000000000000000000000000000000000000000000000000000000000000000000000000000000000000000000000000000000000000000000000000000000000000000000000000000000000000000000000000000000000000000000000000000000000000000000000000000000000000000000000000000000000000000000000000000000000000000000000000000000000000000000000000000000000000000000830200008088016345785d8a0000808000a00000000000000000000000000000000000000000000000000000000000000000880000000000000000c0c0",
        "blocks": [
            {
                "blockHeader": {
                    "parentHash": "0x115ba43fbd639971cda9983ab8484b0e3a82eb863f39f08b2c837129cbdd683d",
                    "uncleHash": "0x1dcc4de8dec75d7aab85b567b6ccd41ad312451b948a7413f0a142fd40d49347",
                    "coinbase": "0x2adc25665018aa1fe0e6bc666dac8fc2697ff9ba",
                    "stateRoot": "0xfeeb0255ac33ae76753f60c2423208883e78a91f0457a4e83784b2a3387217b1",
                    "transactionsTrie": "0x8aee6873e99d1f50e2d70ee51aac09dd0090b61c2e3a9a7dc3fb5adf114215df",
                    "receiptTrie": "0xb06a438715b703bacd5b2d13675e4988dedb2e5beef52db33f11a9ad73074ed1",
                    "bloom": "0x00000000000000000000000000000000000000000000000000000000000000000000000000000000000000000000000000000000000000000000000000000000000000000000000000000000000000000000000000000000000000000000000000000000000000000000000000000000000000000000000000000000000000000000000000000000000000000000000000000000000000000000000000000000000000000000000000000000000000000000000000000000000000000000000000000000000000000000000000000000000000000000000000000000000000000000000000000000000000000000000000000000000000000000000000000000",
                    "difficulty": "0x020000",
                    "number": "0x01",
                    "gasLimit": "0x016345785d8a0000",
                    "gasUsed": "0xb2d3",
                    "timestamp": "0x0c",
                    "extraData": "0x",
                    "mixHash": "0x0000000000000000000000000000000000000000000000000000000000000000",
                    "nonce": "0x0000000000000000",
                    "hash": "0x31c10feee0ed52a7e7760098a34961c40832276b89d82c955b83f51a7f1c729b"
                },
                "transactions": [
                    {
                        "type": "0x00",
                        "chainId": "0x01",
                        "nonce": "0x00",
                        "gasPrice": "0x0a",
                        "gasLimit": "0x0493e0",
                        "to": "0x0000000000000000000000000000000000003000",
                        "value": "0x00",
                        "data": "0x",
                        "v": "0x26",
                        "r": "0xab22ba5663f6ebf4371097be64a3180e3a5dcd87c2ce5c892cf701d2b3ce6d3b",
                        "s": "0x3f1732ca0d3ddcbc7502a3dfe252dcc9cd247a1165982d73b087121b74873071",
                        "sender": "0xa94f5374fce5edbc8e2a8697c15331677e6ebf0b"
                    }
                ],
                "uncleHeaders": [],
                "rlp": "0xf90262f901faa0115ba43fbd639971cda9983ab8484b0e3a82eb863f39f08b2c837129cbdd683da01dcc4de8dec75d7aab85b567b6ccd41ad312451b948a7413f0a142fd40d49347942adc25665018aa1fe0e6bc666dac8fc2697ff9baa0feeb0255ac33ae76753f60c2423208883e78a91f0457a4e83784b2a3387217b1a08aee6873e99d1f50e2d70ee51aac09dd0090b61c2e3a9a7dc3fb5adf114215dfa0b06a438715b703bacd5b2d13675e4988dedb2e5beef52db33f11a9ad73074ed1b9010000000000000000000000000000000000000000000000000000000000000000000000000000000000000000000000000000000000000000000000000000000000000000000000000000000000000000000000000000000000000000000000000000000000000000000000000000000000000000000000000000000000000000000000000000000000000000000000000000000000000000000000000000000000000000000000000000000000000000000000000000000000000000000000000000000000000000000000000000000000000000000000000000000000000000000000000000000000000000000000000000000000000000000000000000000000830200000188016345785d8a000082b2d30c80a00000000000000000000000000000000000000000000000000000000000000000880000000000000000f862f860800a830493e0940000000000000000000000000000000000003000808026a0ab22ba5663f6ebf4371097be64a3180e3a5dcd87c2ce5c892cf701d2b3ce6d3ba03f1732ca0d3ddcbc7502a3dfe252dcc9cd247a1165982d73b087121b74873071c0",
                "blocknumber": "1"
            }
        ],
        "sealEngine": "NoProof",
        "_info": {
            "hash": "0x752ff9320a63b8bb62f7b0b05c832bcdc620eda42b6c609fcf5f85456c2449be",
            "comment": "`execution-spec-tests` generated test",
            "filling-transition-tool": "evm version 1.12.21-unstable-4e004c6c-20250120",
            "description": "Test function documentation:\n\nAt current priceOne transaction fills Test ecMul precompiled bytecode.",
            "url": "https://github.com/ethereum/execution-spec-tests/blob/dc05b4263a69fbee4b9a62c3b971b34197f98ff3/tests/monad/staking/validator_set_changes/test_dummy.py#L21",
            "fixture_format": "blockchain_test"
        }
    }
}