{
    "tests/monad/staking/validator_set_changes/test_dummy.py::test_withdrawal[fork_Berlin-blockchain_test]": {
        "network": "Berlin",
        "genesisBlockHeader": {
            "parentHash": "0x0000000000000000000000000000000000000000000000000000000000000000",
            "uncleHash": "0x1dcc4de8dec75d7aab85b567b6ccd41ad312451b948a7413f0a142fd40d49347",
            "coinbase": "0x0000000000000000000000000000000000000000",
            "stateRoot": "0xb9596e088f2178865518f4380c9d51b8af2158fd3e040e141f5990cf46d2a67f",
            "transactionsTrie": "0x56e81f171bcc55a6ff8345e692c0f86e5b48e01b996cadc001622fb5e363b421",
            "receiptTrie": "0x56e81f171bcc55a6ff8345e692c0f86e5b48e01b996cadc001622fb5e363b421",
            "bloom": "0x00000000000000000000000000000000000000000000000000000000000000000000000000000000000000000000000000000000000000000000000000000000000000000000000000000000000000000000000000000000000000000000000000000000000000000000000000000000000000000000000000000000000000000000000000000000000000000000000000000000000000000000000000000000000000000000000000000000000000000000000000000000000000000000000000000000000000000000000000000000000000000000000000000000000000000000000000000000000000000000000000000000000000000000000000000000",
            "difficulty": "0x020000",
            "number": "0x00",
            "gasLimit": "0x016345785d8a0000",
            "gasUsed": "0x00",
            "timestamp": "0x00",
            "extraData": "0x00",
            "mixHash": "0x0000000000000000000000000000000000000000000000000000000000000000",
            "nonce": "0x0000000000000000",
            "hash": "0x1dd152fb4331b27a7bbae8ac958f1a27f02c3fa32086166140db9b4936dfe3de"
        },
        "pre": {
            "0x0000000000000000000000000000000000001000": {
                "nonce": "0x01",
                "balance": "0x0ba1a9ce0ba1a9ce",
                "code": "0x602060006040600260048251918252848201526103ea611770fa1560235760018055005b60016000fd",
                "storage": {}
            },
            "0xa94f5374fce5edbc8e2a8697c15331677e6ebf0b": {
                "nonce": "0x00",
                "balance": "0x0ba1a9ce0ba1a9ce",
                "code": "0x",
                "storage": {}
            }
        },
        "postState": {
            "0x0000000000000000000000000000000000001000": {
                "nonce": "0x01",
                "balance": "0x0ba1a9ce0ba1a9ce",
                "code": "0x602060006040600260048251918252848201526103ea611770fa1560235760018055005b60016000fd",
                "storage": {
                    "0x01": "0x01"
                }
            },
            "0x2adc25665018aa1fe0e6bc666dac8fc2697ff9ba": {
                "nonce": "0x00",
                "balance": "0x1bc16d674ecefc3e",
                "code": "0x",
                "storage": {}
            },
            "0xa94f5374fce5edbc8e2a8697c15331677e6ebf0b": {
                "nonce": "0x01",
                "balance": "0x0ba1a9ce0b9aad90",
                "code": "0x",
                "storage": {}
            }
        },
        "lastblockhash": "0xe0ecfb685947c085c9dc653f1e596a24080a55819762ca5399b731dca80aa23c",
        "genesisRLP": "0xf901fdf901f8a00000000000000000000000000000000000000000000000000000000000000000a01dcc4de8dec75d7aab85b567b6ccd41ad312451b948a7413f0a142fd40d49347940000000000000000000000000000000000000000a0b9596e088f2178865518f4380c9d51b8af2158fd3e040e141f5990cf46d2a67fa056e81f171bcc55a6ff8345e692c0f86e5b48e01b996cadc001622fb5e363b421a056e81f171bcc55a6ff8345e692c0f86e5b48e01b996cadc001622fb5e363b421b9010000000000000000000000000000000000000000000000000000000000000000000000000000000000000000000000000000000000000000000000000000000000000000000000000000000000000000000000000000000000000000000000000000000000000000000000000000000000000000000000000000000000000000000000000000000000000000000000000000000000000000000000000000000000000000000000000000000000000000000000000000000000000000000000000000000000000000000000000000000000000000000000000000000000000000000000000000000000000000000000000000000000000000000000000000000000830200008088016345785d8a0000808000a00000000000000000000000000000000000000000000000000000000000000000880000000000000000c0c0",
        "blocks": [
            {
                "blockHeader": {
                    "parentHash": "0x1dd152fb4331b27a7bbae8ac958f1a27f02c3fa32086166140db9b4936dfe3de",
                    "uncleHash": "0x1dcc4de8dec75d7aab85b567b6ccd41ad312451b948a7413f0a142fd40d49347",
                    "coinbase": "0x2adc25665018aa1fe0e6bc666dac8fc2697ff9ba",
                    "stateRoot": "0x1a485a0b503a3f85a8054c616ffc30167ee71d4682772d66a6819aee178eff87",
                    "transactionsTrie": "0x6a6bde9dbf62843dd3e7cc978ee57d3b7e3f8e44c44b32bcec546ec4189b177e",
                    "receiptTrie": "0xb06a438715b703bacd5b2d13675e4988dedb2e5beef52db33f11a9ad73074ed1",
                    "bloom": "0x00000000000000000000000000000000000000000000000000000000000000000000000000000000000000000000000000000000000000000000000000000000000000000000000000000000000000000000000000000000000000000000000000000000000000000000000000000000000000000000000000000000000000000000000000000000000000000000000000000000000000000000000000000000000000000000000000000000000000000000000000000000000000000000000000000000000000000000000000000000000000000000000000000000000000000000000000000000000000000000000000000000000000000000000000000000",
                    "difficulty": "0x020000",
                    "number": "0x01",
                    "gasLimit": "0x016345785d8a0000",
                    "gasUsed": "0xb2d3",
                    "timestamp": "0x0c",
                    "extraData": "0x",
                    "mixHash": "0x0000000000000000000000000000000000000000000000000000000000000000",
                    "nonce": "0x0000000000000000",
                    "hash": "0xe0ecfb685947c085c9dc653f1e596a24080a55819762ca5399b731dca80aa23c"
                },
                "transactions": [
                    {
                        "type": "0x00",
                        "chainId": "0x01",
                        "nonce": "0x00",
                        "gasPrice": "0x0a",
                        "gasLimit": "0x0493e0",
                        "to": "0x0000000000000000000000000000000000001000",
                        "value": "0x00",
                        "data": "0x",
                        "v": "0x26",
                        "r": "0x07d40550fe1f9751ec229d96c792af084245fb3588dd4ddede822683b9f455dc",
                        "s": "0x1b87c2c5c3228b91f83a235ff4ce61b5cbe3bf921f0cbf7f89ac0703bab80f51",
                        "sender": "0xa94f5374fce5edbc8e2a8697c15331677e6ebf0b"
                    }
                ],
                "uncleHeaders": [],
                "rlp": "0xf90262f901faa01dd152fb4331b27a7bbae8ac958f1a27f02c3fa32086166140db9b4936dfe3dea01dcc4de8dec75d7aab85b567b6ccd41ad312451b948a7413f0a142fd40d49347942adc25665018aa1fe0e6bc666dac8fc2697ff9baa01a485a0b503a3f85a8054c616ffc30167ee71d4682772d66a6819aee178eff87a06a6bde9dbf62843dd3e7cc978ee57d3b7e3f8e44c44b32bcec546ec4189b177ea0b06a438715b703bacd5b2d13675e4988dedb2e5beef52db33f11a9ad73074ed1b9010000000000000000000000000000000000000000000000000000000000000000000000000000000000000000000000000000000000000000000000000000000000000000000000000000000000000000000000000000000000000000000000000000000000000000000000000000000000000000000000000000000000000000000000000000000000000000000000000000000000000000000000000000000000000000000000000000000000000000000000000000000000000000000000000000000000000000000000000000000000000000000000000000000000000000000000000000000000000000000000000000000000000000000000000000000000830200000188016345785d8a000082b2d30c80a00000000000000000000000000000000000000000000000000000000000000000880000000000000000f862f860800a830493e0940000000000000000000000000000000000001000808026a007d40550fe1f9751ec229d96c792af084245fb3588dd4ddede822683b9f455dca01b87c2c5c3228b91f83a235ff4ce61b5cbe3bf921f0cbf7f89ac0703bab80f51c0",
                "blocknumber": "1"
            }
        ],
        "sealEngine": "NoProof",
        "_info": {
            "hash": "0xaef737fd39549ab17d1b951fb696cc47c8c4fa077bf2a6b4b0f03c2beaf00ab1",
            "comment": "`execution-spec-tests` generated test",
            "filling-transition-tool": "evm version 1.12.21-unstable-4e004c6c-20250120",
            "description": "Test function documentation:\n\nAt current priceOne transaction fills Test ecMul precompiled bytecode.",
            "url": "https://github.com/ethereum/execution-spec-tests/blob/dc05b4263a69fbee4b9a62c3b971b34197f98ff3/tests/monad/staking/validator_set_changes/test_dummy.py#L23",
            "fixture_format": "blockchain_test"
        }
    }
}